:030000000208AE45
:0C08AE00787FE4F6D8FD75810B0208008D
:0D08A100D2AB758920758DCED28ED2AF22DC
:03001B0002088058
:10088000C0E0C0D00509E50970020508B50B0DE50B
:1008900008B50A08750800750900B2B0D0D0D0E0DC
:0108A0003225
:10080000E4F508F509C2B01208A1E590F46066D2DB
:100810008EE590F4FF24FE602424FE602824FC6012
:100820002C24F8603024F0603424E0603824C06068
:100830003C247F70D5750A00750B2880CD750A00A1
:10084000750B2D80C5750A00750B3180BD750A00CA
:10085000750B3680B5750A00750B3E80AD750A00C4
:10086000750B4380A5750A00750B4A809D750A00BB
:10087000750B508095C2B0E4F508F509C28E808AE8
:00000001FF
